{
  "_format": "hh-sol-artifact-1",
  "contractName": "EscrowFactory",
  "sourceName": "contracts/EscrowFactory.sol",
  "abi": [
    {
      "anonymous": false,
      "inputs": [
        {
          "indexed": true,
          "internalType": "address",
          "name": "escrowAddress",
          "type": "address"
        },
        {
          "indexed": true,
          "internalType": "address",
          "name": "payer",
          "type": "address"
        },
        {
          "indexed": true,
          "internalType": "address",
          "name": "payee",
          "type": "address"
        },
        {
          "indexed": false,
          "internalType": "address",
          "name": "arbiter",
          "type": "address"
        },
        {
          "indexed": false,
          "internalType": "uint256",
          "name": "amount",
          "type": "uint256"
        }
      ],
      "name": "EscrowCreated",
      "type": "event"
    },
    {
      "inputs": [],
      "name": "allEscrows",
      "outputs": [
        {
          "internalType": "address[]",
          "name": "",
          "type": "address[]"
        }
      ],
      "stateMutability": "view",
      "type": "function"
    },
    {
      "inputs": [
        {
          "internalType": "address",
          "name": "payer",
          "type": "address"
        },
        {
          "internalType": "address",
          "name": "payee",
          "type": "address"
        },
        {
          "internalType": "address",
          "name": "arbiter",
          "type": "address"
        },
        {
          "internalType": "uint256",
          "name": "amount",
          "type": "uint256"
        }
      ],
      "name": "createEscrow",
      "outputs": [
        {
          "internalType": "address",
          "name": "",
          "type": "address"
        }
      ],
      "stateMutability": "nonpayable",
      "type": "function"
    },
    {
      "inputs": [
        {
          "internalType": "uint256",
          "name": "",
          "type": "uint256"
        }
      ],
      "name": "escrows",
      "outputs": [
        {
          "internalType": "address",
          "name": "",
          "type": "address"
        }
      ],
      "stateMutability": "view",
      "type": "function"
    }
  ],
  "bytecode": "0x608060405234801561001057600080fd5b50610fd1806100206000396000f3fe608060405234801561001057600080fd5b50600436106100415760003560e01c8063012f52ee146100465780635f324c3014610076578063df28c40814610089575b600080fd5b610059610054366004610229565b61009e565b6040516001600160a01b0390911681526020015b60405180910390f35b61005961008436600461025e565b6100c8565b6100916101ba565b60405161006d91906102a9565b600081815481106100ae57600080fd5b6000918252602090912001546001600160a01b0316905081565b600080858585856040516100db9061021c565b6001600160a01b0394851681529284166020840152921660408201526060810191909152608001604051809103906000f08015801561011e573d6000803e3d6000fd5b50600080546001810182559080527f290decd9548b62a8d60345a988386fc84ba6bc95484008f6362f93160ef3e5630180546001600160a01b0319166001600160a01b038381169182179092556040805188841681526020810188905293945088831693928a16927f5110acfd33aad02838430d854a830e50cb07377fab40a6e84daeedb1b1513600910160405180910390a495945050505050565b6060600080548060200260200160405190810160405280929190818152602001828054801561021257602002820191906000526020600020905b81546001600160a01b031681526001909101906020018083116101f4575b5050505050905090565b610ca5806102f783390190565b60006020828403121561023b57600080fd5b5035919050565b80356001600160a01b038116811461025957600080fd5b919050565b6000806000806080858703121561027457600080fd5b61027d85610242565b935061028b60208601610242565b925061029960408601610242565b9396929550929360600135925050565b6020808252825182820181905260009190848201906040850190845b818110156102ea5783516001600160a01b0316835292840192918401916001016102c5565b5090969550505050505056fe6080604052604051610ca5380380610ca583398101604081905261002291610083565b600080546001600160a01b03199081166001600160a01b03968716179091556001805482169486169490941790935560028054909316919093161790556003556100ce565b80516001600160a01b038116811461007e57600080fd5b919050565b6000806000806080858703121561009957600080fd5b6100a285610067565b93506100b060208601610067565b92506100be60408601610067565b6060959095015193969295505050565b610bc8806100dd6000396000f3fe6080604052600436106100dd5760003560e01c8063708ddf7b1161007f578063aa8c217c11610059578063aa8c217c1461022f578063ae90b21314610245578063b60d428814610265578063fe25e00a1461026d57600080fd5b8063708ddf7b146101d157806396132521146101f1578063a9a748ff1461020b57600080fd5b806312f53950116100bb57806312f539501461014b5780632c2e8faf1461017a578063590e1ae31461019a57806359d6b35b146101af57600080fd5b80630e1da6c3146100e2578063123119cd146100f957806312424e3f14610136575b600080fd5b3480156100ee57600080fd5b506100f761028d565b005b34801561010557600080fd5b50600054610119906001600160a01b031681565b6040516001600160a01b0390911681526020015b60405180910390f35b34801561014257600080fd5b506100f7610436565b34801561015757600080fd5b5060055461016a90610100900460ff1681565b604051901515815260200161012d565b34801561018657600080fd5b506100f761019536600461091c565b6105a0565b3480156101a657600080fd5b506100f761064d565b3480156101bb57600080fd5b506101c461078c565b60405161012d919061098e565b3480156101dd57600080fd5b5060055461016a9062010000900460ff1681565b3480156101fd57600080fd5b5060055461016a9060ff1681565b34801561021757600080fd5b5061022160045481565b60405190815260200161012d565b34801561023b57600080fd5b5061022160035481565b34801561025157600080fd5b50600154610119906001600160a01b031681565b6100f761081a565b34801561027957600080fd5b50600254610119906001600160a01b031681565b6000546001600160a01b031633146102d95760405162461bcd60e51b815260206004820152600a60248201526937b7363c903830bcb2b960b11b60448201526064015b60405180910390fd5b6004546102e99062278d006109dc565b421161032d5760405162461bcd60e51b81526020600482015260136024820152721d1a5b595bdd5d081b9bdd081c995858da1959606a1b60448201526064016102d0565b60055460ff16156103735760405162461bcd60e51b815260206004820152601060248201526f185b1c9958591e481c995b19585cd95960821b60448201526064016102d0565b600554610100900460ff16156103be5760405162461bcd60e51b815260206004820152601060248201526f185b1c9958591e481c99599d5b99195960821b60448201526064016102d0565b6005805461ff001916610100179055600080546003546040516001600160a01b039092169281156108fc029290818181858888f19350505050158015610408573d6000803e3d6000fd5b5060405133907fd4d064040eaef5e282052f5161177e0ffa030862264b44c8c32dee95cce33a7d90600090a2565b6000546001600160a01b031633148061045957506002546001600160a01b031633145b61049d5760405162461bcd60e51b815260206004820152601560248201527437b7363c903830bcb2b91037b91030b93134ba32b960591b60448201526064016102d0565b60055460ff16156104e35760405162461bcd60e51b815260206004820152601060248201526f185b1c9958591e481c995b19585cd95960821b60448201526064016102d0565b6005805460ff1916600117905560405133907f5d91bd0cecc45fef102af61de92c5462fadc884a5ce9d21c15e8a85198f2349e90600090a26001546003546040516001600160a01b039092169181156108fc0291906000818181858888f19350505050158015610557573d6000803e3d6000fd5b506001546003546040519081526001600160a01b03909116907fb21fb52d5749b80f3182f8c6992236b5e5576681880914484d7f4c9b062e619e906020015b60405180910390a2565b6001546001600160a01b031633146105e75760405162461bcd60e51b815260206004820152600a6024820152696f6e6c7920706179656560b01b60448201526064016102d0565b6005805462ff00001916620100001790556006610605828483610aa2565b50336001600160a01b03167f227d17811e582357665ee6ee281ef8528946951eab558c87afaf102464d6cc568383604051610641929190610b63565b60405180910390a25050565b6000546001600160a01b031633148061067057506002546001600160a01b031633145b6106b45760405162461bcd60e51b815260206004820152601560248201527437b7363c903830bcb2b91037b91030b93134ba32b960591b60448201526064016102d0565b600554610100900460ff16156106ff5760405162461bcd60e51b815260206004820152601060248201526f185b1c9958591e481c99599d5b99195960821b60448201526064016102d0565b6005805461ff001916610100179055600080546003546040516001600160a01b039092169281156108fc029290818181858888f19350505050158015610749573d6000803e3d6000fd5b506000546003546040519081526001600160a01b03909116907fd7dee2702d63ad89917b6a4da9981c90c4d24f8c2bdfd64c604ecae57d8d065190602001610596565b6006805461079990610a19565b80601f01602080910402602001604051908101604052809291908181526020018280546107c590610a19565b80156108125780601f106107e757610100808354040283529160200191610812565b820191906000526020600020905b8154815290600101906020018083116107f557829003601f168201915b505050505081565b6000546001600160a01b031633146108615760405162461bcd60e51b815260206004820152600a60248201526937b7363c903830bcb2b960b11b60448201526064016102d0565b60035434146108a55760405162461bcd60e51b815260206004820152601060248201526f1a5b98dbdc9c9958dd08185b5bdd5b9d60821b60448201526064016102d0565b600454156108e65760405162461bcd60e51b815260206004820152600e60248201526d185b1c9958591e48199d5b99195960921b60448201526064016102d0565b4260045560405134815233907f5af8184bef8e4b45eb9f6ed7734d04da38ced226495548f46e0c8ff8d7d9a52490602001610596565b6000806020838503121561092f57600080fd5b823567ffffffffffffffff8082111561094757600080fd5b818501915085601f83011261095b57600080fd5b81358181111561096a57600080fd5b86602082850101111561097c57600080fd5b60209290920196919550909350505050565b600060208083528351808285015260005b818110156109bb5785810183015185820160400152820161099f565b506000604082860101526040601f19601f8301168501019250505092915050565b808201808211156109fd57634e487b7160e01b600052601160045260246000fd5b92915050565b634e487b7160e01b600052604160045260246000fd5b600181811c90821680610a2d57607f821691505b602082108103610a4d57634e487b7160e01b600052602260045260246000fd5b50919050565b601f821115610a9d57600081815260208120601f850160051c81016020861015610a7a5750805b601f850160051c820191505b81811015610a9957828155600101610a86565b5050505b505050565b67ffffffffffffffff831115610aba57610aba610a03565b610ace83610ac88354610a19565b83610a53565b6000601f841160018114610b025760008515610aea5750838201355b600019600387901b1c1916600186901b178355610b5c565b600083815260209020601f19861690835b82811015610b335786850135825560209485019460019092019101610b13565b5086821015610b505760001960f88860031b161c19848701351681555b505060018560011b0183555b5050505050565b60208152816020820152818360408301376000818301604090810191909152601f909201601f1916010191905056fea26469706673582212209529492d5fc3ea312ee097ecd9b1c151b786e0b5f3a1ebf6ef0e225f6b14890964736f6c63430008120033a2646970667358221220d45696df35134856b2fb9f5351413ab8aa3d038280c086f5a97d0e4a89938e7464736f6c63430008120033",
  "linkReferences": {},
  "deployedLinkReferences": {}
}