{
  "_format": "hh-sol-artifact-1",
  "contractName": "Escrow",
  "sourceName": "contracts/Escrow.sol",
  "abi": [
    {
      "inputs": [
        {
          "internalType": "address",
          "name": "_payer",
          "type": "address"
        },
        {
          "internalType": "address",
          "name": "_payee",
          "type": "address"
        },
        {
          "internalType": "address",
          "name": "_arbiter",
          "type": "address"
        },
        {
          "internalType": "uint256",
          "name": "_amount",
          "type": "uint256"
        }
      ],
      "stateMutability": "payable",
      "type": "constructor"
    },
    {
      "anonymous": false,
      "inputs": [
        {
          "indexed": true,
          "internalType": "address",
          "name": "by",
          "type": "address"
        }
      ],
      "name": "Approved",
      "type": "event"
    },
    {
      "anonymous": false,
      "inputs": [
        {
          "indexed": true,
          "internalType": "address",
          "name": "payer",
          "type": "address"
        },
        {
          "indexed": false,
          "internalType": "uint256",
          "name": "amount",
          "type": "uint256"
        }
      ],
      "name": "Funded",
      "type": "event"
    },
    {
      "anonymous": false,
      "inputs": [
        {
          "indexed": true,
          "internalType": "address",
          "name": "by",
          "type": "address"
        },
        {
          "indexed": false,
          "internalType": "string",
          "name": "proof",
          "type": "string"
        }
      ],
      "name": "ProofSubmitted",
      "type": "event"
    },
    {
      "anonymous": false,
      "inputs": [
        {
          "indexed": true,
          "internalType": "address",
          "name": "to",
          "type": "address"
        },
        {
          "indexed": false,
          "internalType": "uint256",
          "name": "amount",
          "type": "uint256"
        }
      ],
      "name": "Refunded",
      "type": "event"
    },
    {
      "anonymous": false,
      "inputs": [
        {
          "indexed": true,
          "internalType": "address",
          "name": "to",
          "type": "address"
        },
        {
          "indexed": false,
          "internalType": "uint256",
          "name": "amount",
          "type": "uint256"
        }
      ],
      "name": "Released",
      "type": "event"
    },
    {
      "anonymous": false,
      "inputs": [
        {
          "indexed": true,
          "internalType": "address",
          "name": "by",
          "type": "address"
        }
      ],
      "name": "TimeoutClaimed",
      "type": "event"
    },
    {
      "inputs": [],
      "name": "amount",
      "outputs": [
        {
          "internalType": "uint256",
          "name": "",
          "type": "uint256"
        }
      ],
      "stateMutability": "view",
      "type": "function"
    },
    {
      "inputs": [],
      "name": "approveAndRelease",
      "outputs": [],
      "stateMutability": "nonpayable",
      "type": "function"
    },
    {
      "inputs": [],
      "name": "arbiter",
      "outputs": [
        {
          "internalType": "address",
          "name": "",
          "type": "address"
        }
      ],
      "stateMutability": "view",
      "type": "function"
    },
    {
      "inputs": [
        {
          "internalType": "uint256",
          "name": "timeoutSeconds",
          "type": "uint256"
        }
      ],
      "name": "claimTimeout",
      "outputs": [],
      "stateMutability": "nonpayable",
      "type": "function"
    },
    {
      "inputs": [],
      "name": "fund",
      "outputs": [],
      "stateMutability": "payable",
      "type": "function"
    },
    {
      "inputs": [],
      "name": "fundedAt",
      "outputs": [
        {
          "internalType": "uint256",
          "name": "",
          "type": "uint256"
        }
      ],
      "stateMutability": "view",
      "type": "function"
    },
    {
      "inputs": [],
      "name": "payee",
      "outputs": [
        {
          "internalType": "address",
          "name": "",
          "type": "address"
        }
      ],
      "stateMutability": "view",
      "type": "function"
    },
    {
      "inputs": [],
      "name": "payer",
      "outputs": [
        {
          "internalType": "address",
          "name": "",
          "type": "address"
        }
      ],
      "stateMutability": "view",
      "type": "function"
    },
    {
      "inputs": [],
      "name": "refund",
      "outputs": [],
      "stateMutability": "nonpayable",
      "type": "function"
    },
    {
      "inputs": [],
      "name": "refunded",
      "outputs": [
        {
          "internalType": "bool",
          "name": "",
          "type": "bool"
        }
      ],
      "stateMutability": "view",
      "type": "function"
    },
    {
      "inputs": [],
      "name": "released",
      "outputs": [
        {
          "internalType": "bool",
          "name": "",
          "type": "bool"
        }
      ],
      "stateMutability": "view",
      "type": "function"
    },
    {
      "inputs": [
        {
          "internalType": "string",
          "name": "proof",
          "type": "string"
        }
      ],
      "name": "submitProof",
      "outputs": [],
      "stateMutability": "nonpayable",
      "type": "function"
    }
  ],
  "bytecode": "0x608060405260405161094c38038061094c83398101604081905261002291610083565b600080546001600160a01b03199081166001600160a01b03968716179091556001805482169486169490941790935560028054909316919093161790556003556100ce565b80516001600160a01b038116811461007e57600080fd5b919050565b6000806000806080858703121561009957600080fd5b6100a285610067565b93506100b060208601610067565b92506100be60408601610067565b6060959095015193969295505050565b61086f806100dd6000396000f3fe6080604052600436106100a75760003560e01c806396132521116100645780639613252114610184578063a9a748ff1461019e578063aa8c217c146101c2578063ae90b213146101d8578063b60d4288146101f8578063fe25e00a1461020057600080fd5b8063123119cd146100ac57806312f53950146100e95780632c2e8faf14610118578063590e1ae31461013a57806370dfcbc21461014f57806386e773f114610164575b600080fd5b3480156100b857600080fd5b506000546100cc906001600160a01b031681565b6040516001600160a01b0390911681526020015b60405180910390f35b3480156100f557600080fd5b5060055461010890610100900460ff1681565b60405190151581526020016100e0565b34801561012457600080fd5b5061013861013336600461072d565b610220565b005b34801561014657600080fd5b50610138610267565b34801561015b57600080fd5b5061013861037d565b34801561017057600080fd5b5061013861017f36600461079f565b6104b0565b34801561019057600080fd5b506005546101089060ff1681565b3480156101aa57600080fd5b506101b460045481565b6040519081526020016100e0565b3480156101ce57600080fd5b506101b460035481565b3480156101e457600080fd5b506001546100cc906001600160a01b031681565b61013861066b565b34801561020c57600080fd5b506002546100cc906001600160a01b031681565b336001600160a01b03167f227d17811e582357665ee6ee281ef8528946951eab558c87afaf102464d6cc56838360405161025b9291906107b8565b60405180910390a25050565b6002546001600160a01b031633146102b55760405162461bcd60e51b815260206004820152600c60248201526b37b7363c9030b93134ba32b960a11b60448201526064015b60405180910390fd5b60055460ff161580156102d05750600554610100900460ff16155b6102ec5760405162461bcd60e51b81526004016102ac906107e7565b6005805461ff0019166101001790556000805460405147926001600160a01b039092169183156108fc02918491818181858888f19350505050158015610336573d6000803e3d6000fd5b506000546040518281526001600160a01b03909116907fd7dee2702d63ad89917b6a4da9981c90c4d24f8c2bdfd64c604ecae57d8d0651906020015b60405180910390a250565b6002546001600160a01b031633146103c65760405162461bcd60e51b815260206004820152600c60248201526b37b7363c9030b93134ba32b960a11b60448201526064016102ac565b60055460ff161580156103e15750600554610100900460ff16155b6103fd5760405162461bcd60e51b81526004016102ac906107e7565b6005805460ff191660019081179091555460405147916001600160a01b03169082156108fc029083906000818181858888f19350505050158015610445573d6000803e3d6000fd5b5060405133907f5d91bd0cecc45fef102af61de92c5462fadc884a5ce9d21c15e8a85198f2349e90600090a26001546040518281526001600160a01b03909116907fb21fb52d5749b80f3182f8c6992236b5e5576681880914484d7f4c9b062e619e90602001610372565b6000546001600160a01b031633146104f75760405162461bcd60e51b815260206004820152600a60248201526937b7363c903830bcb2b960b11b60448201526064016102ac565b6000600454116105365760405162461bcd60e51b815260206004820152600a6024820152691b9bdd08199d5b99195960b21b60448201526064016102ac565b806004546105449190610812565b42101561057f5760405162461bcd60e51b8152602060048201526009602482015268746f6f206561726c7960b81b60448201526064016102ac565b60055460ff1615801561059a5750600554610100900460ff16155b6105b65760405162461bcd60e51b81526004016102ac906107e7565b6005805461ff0019166101001790556000805460405147926001600160a01b039092169183156108fc02918491818181858888f19350505050158015610600573d6000803e3d6000fd5b5060405133907fd4d064040eaef5e282052f5161177e0ffa030862264b44c8c32dee95cce33a7d90600090a26000546040518281526001600160a01b03909116907fd7dee2702d63ad89917b6a4da9981c90c4d24f8c2bdfd64c604ecae57d8d06519060200161025b565b6000546001600160a01b031633146106b25760405162461bcd60e51b815260206004820152600a60248201526937b7363c903830bcb2b960b11b60448201526064016102ac565b60035434146106f25760405162461bcd60e51b815260206004820152600c60248201526b1ddc9bdb99c8185b5bdd5b9d60a21b60448201526064016102ac565b4260045560405134815233907f5af8184bef8e4b45eb9f6ed7734d04da38ced226495548f46e0c8ff8d7d9a5249060200160405180910390a2565b6000806020838503121561074057600080fd5b823567ffffffffffffffff8082111561075857600080fd5b818501915085601f83011261076c57600080fd5b81358181111561077b57600080fd5b86602082850101111561078d57600080fd5b60209290920196919550909350505050565b6000602082840312156107b157600080fd5b5035919050565b60208152816020820152818360408301376000818301604090810191909152601f909201601f19160101919050565b602080825260119082015270185b1c9958591e48199a5b985b1a5e9959607a1b604082015260600190565b8082018082111561083357634e487b7160e01b600052601160045260246000fd5b9291505056fea2646970667358221220dc0b49932736c7632f0f6fdde94f18eeb2e2ddcad575017af70db8e831c1a4ca64736f6c63430008120033",
  "linkReferences": {},
  "deployedLinkReferences": {}
}