{"contracts/Escrow.sol":{"Escrow":{"abi":[{"inputs":[{"internalType":"address","name":"_payer","type":"address"},{"internalType":"address","name":"_payee","type":"address"},{"internalType":"address","name":"_arbiter","type":"address"},{"internalType":"uint256","name":"_amount","type":"uint256"}],"stateMutability":"payable","type":"constructor"},{"anonymous":false,"inputs":[{"indexed":true,"internalType":"address","name":"by","type":"address"}],"name":"Approved","type":"event"},{"anonymous":false,"inputs":[{"indexed":true,"internalType":"address","name":"payer","type":"address"},{"indexed":false,"internalType":"uint256","name":"amount","type":"uint256"}],"name":"Funded","type":"event"},{"anonymous":false,"inputs":[{"indexed":true,"internalType":"address","name":"by","type":"address"},{"indexed":false,"internalType":"string","name":"proof","type":"string"}],"name":"ProofSubmitted","type":"event"},{"anonymous":false,"inputs":[{"indexed":true,"internalType":"address","name":"to","type":"address"},{"indexed":false,"internalType":"uint256","name":"amount","type":"uint256"}],"name":"Refunded","type":"event"},{"anonymous":false,"inputs":[{"indexed":true,"internalType":"address","name":"to","type":"address"},{"indexed":false,"internalType":"uint256","name":"amount","type":"uint256"}],"name":"Released","type":"event"},{"anonymous":false,"inputs":[{"indexed":true,"internalType":"address","name":"by","type":"address"}],"name":"TimeoutClaimed","type":"event"},{"inputs":[],"name":"amount","outputs":[{"internalType":"uint256","name":"","type":"uint256"}],"stateMutability":"view","type":"function"},{"inputs":[],"name":"approveAndRelease","outputs":[],"stateMutability":"nonpayable","type":"function"},{"inputs":[],"name":"arbiter","outputs":[{"internalType":"address","name":"","type":"address"}],"stateMutability":"view","type":"function"},{"inputs":[{"internalType":"uint256","name":"timeoutSeconds","type":"uint256"}],"name":"claimTimeout","outputs":[],"stateMutability":"nonpayable","type":"function"},{"inputs":[],"name":"fund","outputs":[],"stateMutability":"payable","type":"function"},{"inputs":[],"name":"fundedAt","outputs":[{"internalType":"uint256","name":"","type":"uint256"}],"stateMutability":"view","type":"function"},{"inputs":[],"name":"payee","outputs":[{"internalType":"address","name":"","type":"address"}],"stateMutability":"view","type":"function"},{"inputs":[],"name":"payer","outputs":[{"internalType":"address","name":"","type":"address"}],"stateMutability":"view","type":"function"},{"inputs":[],"name":"refund","outputs":[],"stateMutability":"nonpayable","type":"function"},{"inputs":[],"name":"refunded","outputs":[{"internalType":"bool","name":"","type":"bool"}],"stateMutability":"view","type":"function"},{"inputs":[],"name":"released","outputs":[{"internalType":"bool","name":"","type":"bool"}],"stateMutability":"view","type":"function"},{"inputs":[{"internalType":"string","name":"proof","type":"string"}],"name":"submitProof","outputs":[],"stateMutability":"nonpayable","type":"function"}],"evm":{"bytecode":{"linkReferences":{},"object":"608060405260405161094c38038061094c83398101604081905261002291610083565b600080546001600160a01b03199081166001600160a01b03968716179091556001805482169486169490941790935560028054909316919093161790556003556100ce565b80516001600160a01b038116811461007e57600080fd5b919050565b6000806000806080858703121561009957600080fd5b6100a285610067565b93506100b060208601610067565b92506100be60408601610067565b6060959095015193969295505050565b61086f806100dd6000396000f3fe6080604052600436106100a75760003560e01c806396132521116100645780639613252114610184578063a9a748ff1461019e578063aa8c217c146101c2578063ae90b213146101d8578063b60d4288146101f8578063fe25e00a1461020057600080fd5b8063123119cd146100ac57806312f53950146100e95780632c2e8faf14610118578063590e1ae31461013a57806370dfcbc21461014f57806386e773f114610164575b600080fd5b3480156100b857600080fd5b506000546100cc906001600160a01b031681565b6040516001600160a01b0390911681526020015b60405180910390f35b3480156100f557600080fd5b5060055461010890610100900460ff1681565b60405190151581526020016100e0565b34801561012457600080fd5b5061013861013336600461072d565b610220565b005b34801561014657600080fd5b50610138610267565b34801561015b57600080fd5b5061013861037d565b34801561017057600080fd5b5061013861017f36600461079f565b6104b0565b34801561019057600080fd5b506005546101089060ff1681565b3480156101aa57600080fd5b506101b460045481565b6040519081526020016100e0565b3480156101ce57600080fd5b506101b460035481565b3480156101e457600080fd5b506001546100cc906001600160a01b031681565b61013861066b565b34801561020c57600080fd5b506002546100cc906001600160a01b031681565b336001600160a01b03167f227d17811e582357665ee6ee281ef8528946951eab558c87afaf102464d6cc56838360405161025b9291906107b8565b60405180910390a25050565b6002546001600160a01b031633146102b55760405162461bcd60e51b815260206004820152600c60248201526b37b7363c9030b93134ba32b960a11b60448201526064015b60405180910390fd5b60055460ff161580156102d05750600554610100900460ff16155b6102ec5760405162461bcd60e51b81526004016102ac906107e7565b6005805461ff0019166101001790556000805460405147926001600160a01b039092169183156108fc02918491818181858888f19350505050158015610336573d6000803e3d6000fd5b506000546040518281526001600160a01b03909116907fd7dee2702d63ad89917b6a4da9981c90c4d24f8c2bdfd64c604ecae57d8d0651906020015b60405180910390a250565b6002546001600160a01b031633146103c65760405162461bcd60e51b815260206004820152600c60248201526b37b7363c9030b93134ba32b960a11b60448201526064016102ac565b60055460ff161580156103e15750600554610100900460ff16155b6103fd5760405162461bcd60e51b81526004016102ac906107e7565b6005805460ff191660019081179091555460405147916001600160a01b03169082156108fc029083906000818181858888f19350505050158015610445573d6000803e3d6000fd5b5060405133907f5d91bd0cecc45fef102af61de92c5462fadc884a5ce9d21c15e8a85198f2349e90600090a26001546040518281526001600160a01b03909116907fb21fb52d5749b80f3182f8c6992236b5e5576681880914484d7f4c9b062e619e90602001610372565b6000546001600160a01b031633146104f75760405162461bcd60e51b815260206004820152600a60248201526937b7363c903830bcb2b960b11b60448201526064016102ac565b6000600454116105365760405162461bcd60e51b815260206004820152600a6024820152691b9bdd08199d5b99195960b21b60448201526064016102ac565b806004546105449190610812565b42101561057f5760405162461bcd60e51b8152602060048201526009602482015268746f6f206561726c7960b81b60448201526064016102ac565b60055460ff1615801561059a5750600554610100900460ff16155b6105b65760405162461bcd60e51b81526004016102ac906107e7565b6005805461ff0019166101001790556000805460405147926001600160a01b039092169183156108fc02918491818181858888f19350505050158015610600573d6000803e3d6000fd5b5060405133907fd4d064040eaef5e282052f5161177e0ffa030862264b44c8c32dee95cce33a7d90600090a26000546040518281526001600160a01b03909116907fd7dee2702d63ad89917b6a4da9981c90c4d24f8c2bdfd64c604ecae57d8d06519060200161025b565b6000546001600160a01b031633146106b25760405162461bcd60e51b815260206004820152600a60248201526937b7363c903830bcb2b960b11b60448201526064016102ac565b60035434146106f25760405162461bcd60e51b815260206004820152600c60248201526b1ddc9bdb99c8185b5bdd5b9d60a21b60448201526064016102ac565b4260045560405134815233907f5af8184bef8e4b45eb9f6ed7734d04da38ced226495548f46e0c8ff8d7d9a5249060200160405180910390a2565b6000806020838503121561074057600080fd5b823567ffffffffffffffff8082111561075857600080fd5b818501915085601f83011261076c57600080fd5b81358181111561077b57600080fd5b86602082850101111561078d57600080fd5b60209290920196919550909350505050565b6000602082840312156107b157600080fd5b5035919050565b60208152816020820152818360408301376000818301604090810191909152601f909201601f19160101919050565b602080825260119082015270185b1c9958591e48199a5b985b1a5e9959607a1b604082015260600190565b8082018082111561083357634e487b7160e01b600052601160045260246000fd5b9291505056fea2646970667358221220dc0b49932736c7632f0f6fdde94f18eeb2e2ddcad575017af70db8e831c1a4ca64736f6c63430008120033","opcodes":"PUSH1 0x80 PUSH1 0x40 MSTORE PUSH1 0x40 MLOAD PUSH2 0x94C CODESIZE SUB DUP1 PUSH2 0x94C DUP4 CODECOPY DUP2 ADD PUSH1 0x40 DUP2 SWAP1 MSTORE PUSH2 0x22 SWAP2 PUSH2 0x83 JUMP JUMPDEST PUSH1 0x0 DUP1 SLOAD PUSH1 0x1 PUSH1 0x1 PUSH1 0xA0 SHL SUB NOT SWAP1 DUP2 AND PUSH1 0x1 PUSH1 0x1 PUSH1 0xA0 SHL SUB SWAP7 DUP8 AND OR SWAP1 SWAP2 SSTORE PUSH1 0x1 DUP1 SLOAD DUP3 AND SWAP5 DUP7 AND SWAP5 SWAP1 SWAP5 OR SWAP1 SWAP4 SSTORE PUSH1 0x2 DUP1 SLOAD SWAP1 SWAP4 AND SWAP2 SWAP1 SWAP4 AND OR SWAP1 SSTORE PUSH1 0x3 SSTORE PUSH2 0xCE JUMP JUMPDEST DUP1 MLOAD PUSH1 0x1 PUSH1 0x1 PUSH1 0xA0 SHL SUB DUP2 AND DUP2 EQ PUSH2 0x7E JUMPI PUSH1 0x0 DUP1 REVERT JUMPDEST SWAP2 SWAP1 POP JUMP JUMPDEST PUSH1 0x0 DUP1 PUSH1 0x0 DUP1 PUSH1 0x80 DUP6 DUP8 SUB SLT ISZERO PUSH2 0x99 JUMPI PUSH1 0x0 DUP1 REVERT JUMPDEST PUSH2 0xA2 DUP6 PUSH2 0x67 JUMP JUMPDEST SWAP4 POP PUSH2 0xB0 PUSH1 0x20 DUP7 ADD PUSH2 0x67 JUMP JUMPDEST SWAP3 POP PUSH2 0xBE PUSH1 0x40 DUP7 ADD PUSH2 0x67 JUMP JUMPDEST PUSH1 0x60 SWAP6 SWAP1 SWAP6 ADD MLOAD SWAP4 SWAP7 SWAP3 SWAP6 POP POP POP JUMP JUMPDEST PUSH2 0x86F DUP1 PUSH2 0xDD PUSH1 0x0 CODECOPY PUSH1 0x0 RETURN INVALID PUSH1 0x80 PUSH1 0x40 MSTORE PUSH1 0x4 CALLDATASIZE LT PUSH2 0xA7 JUMPI PUSH1 0x0 CALLDATALOAD PUSH1 0xE0 SHR DUP1 PUSH4 0x96132521 GT PUSH2 0x64 JUMPI DUP1 PUSH4 0x96132521 EQ PUSH2 0x184 JUMPI DUP1 PUSH4 0xA9A748FF EQ PUSH2 0x19E JUMPI DUP1 PUSH4 0xAA8C217C EQ PUSH2 0x1C2 JUMPI DUP1 PUSH4 0xAE90B213 EQ PUSH2 0x1D8 JUMPI DUP1 PUSH4 0xB60D4288 EQ PUSH2 0x1F8 JUMPI DUP1 PUSH4 0xFE25E00A EQ PUSH2 0x200 JUMPI PUSH1 0x0 DUP1 REVERT JUMPDEST DUP1 PUSH4 0x123119CD EQ PUSH2 0xAC JUMPI DUP1 PUSH4 0x12F53950 EQ PUSH2 0xE9 JUMPI DUP1 PUSH4 0x2C2E8FAF EQ PUSH2 0x118 JUMPI DUP1 PUSH4 0x590E1AE3 EQ PUSH2 0x13A JUMPI DUP1 PUSH4 0x70DFCBC2 EQ PUSH2 0x14F JUMPI DUP1 PUSH4 0x86E773F1 EQ PUSH2 0x164 JUMPI JUMPDEST PUSH1 0x0 DUP1 REVERT JUMPDEST CALLVALUE DUP1 ISZERO PUSH2 0xB8 JUMPI PUSH1 0x0 DUP1 REVERT JUMPDEST POP PUSH1 0x0 SLOAD PUSH2 0xCC SWAP1 PUSH1 0x1 PUSH1 0x1 PUSH1 0xA0 SHL SUB AND DUP2 JUMP JUMPDEST PUSH1 0x40 MLOAD PUSH1 0x1 PUSH1 0x1 PUSH1 0xA0 SHL SUB SWAP1 SWAP2 AND DUP2 MSTORE PUSH1 0x20 ADD JUMPDEST PUSH1 0x40 MLOAD DUP1 SWAP2 SUB SWAP1 RETURN JUMPDEST CALLVALUE DUP1 ISZERO PUSH2 0xF5 JUMPI PUSH1 0x0 DUP1 REVERT JUMPDEST POP PUSH1 0x5 SLOAD PUSH2 0x108 SWAP1 PUSH2 0x100 SWAP1 DIV PUSH1 0xFF AND DUP2 JUMP JUMPDEST PUSH1 0x40 MLOAD SWAP1 ISZERO ISZERO DUP2 MSTORE PUSH1 0x20 ADD PUSH2 0xE0 JUMP JUMPDEST CALLVALUE DUP1 ISZERO PUSH2 0x124 JUMPI PUSH1 0x0 DUP1 REVERT JUMPDEST POP PUSH2 0x138 PUSH2 0x133 CALLDATASIZE PUSH1 0x4 PUSH2 0x72D JUMP JUMPDEST PUSH2 0x220 JUMP JUMPDEST STOP JUMPDEST CALLVALUE DUP1 ISZERO PUSH2 0x146 JUMPI PUSH1 0x0 DUP1 REVERT JUMPDEST POP PUSH2 0x138 PUSH2 0x267 JUMP JUMPDEST CALLVALUE DUP1 ISZERO PUSH2 0x15B JUMPI PUSH1 0x0 DUP1 REVERT JUMPDEST POP PUSH2 0x138 PUSH2 0x37D JUMP JUMPDEST CALLVALUE DUP1 ISZERO PUSH2 0x170 JUMPI PUSH1 0x0 DUP1 REVERT JUMPDEST POP PUSH2 0x138 PUSH2 0x17F CALLDATASIZE PUSH1 0x4 PUSH2 0x79F JUMP JUMPDEST PUSH2 0x4B0 JUMP JUMPDEST CALLVALUE DUP1 ISZERO PUSH2 0x190 JUMPI PUSH1 0x0 DUP1 REVERT JUMPDEST POP PUSH1 0x5 SLOAD PUSH2 0x108 SWAP1 PUSH1 0xFF AND DUP2 JUMP JUMPDEST CALLVALUE DUP1 ISZERO PUSH2 0x1AA JUMPI PUSH1 0x0 DUP1 REVERT JUMPDEST POP PUSH2 0x1B4 PUSH1 0x4 SLOAD DUP2 JUMP JUMPDEST PUSH1 0x40 MLOAD SWAP1 DUP2 MSTORE PUSH1 0x20 ADD PUSH2 0xE0 JUMP JUMPDEST CALLVALUE DUP1 ISZERO PUSH2 0x1CE JUMPI PUSH1 0x0 DUP1 REVERT JUMPDEST POP PUSH2 0x1B4 PUSH1 0x3 SLOAD DUP2 JUMP JUMPDEST CALLVALUE DUP1 ISZERO PUSH2 0x1E4 JUMPI PUSH1 0x0 DUP1 REVERT JUMPDEST POP PUSH1 0x1 SLOAD PUSH2 0xCC SWAP1 PUSH1 0x1 PUSH1 0x1 PUSH1 0xA0 SHL SUB AND DUP2 JUMP JUMPDEST PUSH2 0x138 PUSH2 0x66B JUMP JUMPDEST CALLVALUE DUP1 ISZERO PUSH2 0x20C JUMPI PUSH1 0x0 DUP1 REVERT JUMPDEST POP PUSH1 0x2 SLOAD PUSH2 0xCC SWAP1 PUSH1 0x1 PUSH1 0x1 PUSH1 0xA0 SHL SUB AND DUP2 JUMP JUMPDEST CALLER PUSH1 0x1 PUSH1 0x1 PUSH1 0xA0 SHL SUB AND PUSH32 0x227D17811E582357665EE6EE281EF8528946951EAB558C87AFAF102464D6CC56 DUP4 DUP4 PUSH1 0x40 MLOAD PUSH2 0x25B SWAP3 SWAP2 SWAP1 PUSH2 0x7B8 JUMP JUMPDEST PUSH1 0x40 MLOAD DUP1 SWAP2 SUB SWAP1 LOG2 POP POP JUMP JUMPDEST PUSH1 0x2 SLOAD PUSH1 0x1 PUSH1 0x1 PUSH1 0xA0 SHL SUB AND CALLER EQ PUSH2 0x2B5 JUMPI PUSH1 0x40 MLOAD PUSH3 0x461BCD PUSH1 0xE5 SHL DUP2 MSTORE PUSH1 0x20 PUSH1 0x4 DUP3 ADD MSTORE PUSH1 0xC PUSH1 0x24 DUP3 ADD MSTORE PUSH12 0x37B7363C9030B93134BA32B9 PUSH1 0xA1 SHL PUSH1 0x44 DUP3 ADD MSTORE PUSH1 0x64 ADD JUMPDEST PUSH1 0x40 MLOAD DUP1 SWAP2 SUB SWAP1 REVERT JUMPDEST PUSH1 0x5 SLOAD PUSH1 0xFF AND ISZERO DUP1 ISZERO PUSH2 0x2D0 JUMPI POP PUSH1 0x5 SLOAD PUSH2 0x100 SWAP1 DIV PUSH1 0xFF AND ISZERO JUMPDEST PUSH2 0x2EC JUMPI PUSH1 0x40 MLOAD PUSH3 0x461BCD PUSH1 0xE5 SHL DUP2 MSTORE PUSH1 0x4 ADD PUSH2 0x2AC SWAP1 PUSH2 0x7E7 JUMP JUMPDEST PUSH1 0x5 DUP1 SLOAD PUSH2 0xFF00 NOT AND PUSH2 0x100 OR SWAP1 SSTORE PUSH1 0x0 DUP1 SLOAD PUSH1 0x40 MLOAD SELFBALANCE SWAP3 PUSH1 0x1 PUSH1 0x1 PUSH1 0xA0 SHL SUB SWAP1 SWAP3 AND SWAP2 DUP4 ISZERO PUSH2 0x8FC MUL SWAP2 DUP5 SWAP2 DUP2 DUP2 DUP2 DUP6 DUP9 DUP9 CALL SWAP4 POP POP POP POP ISZERO DUP1 ISZERO PUSH2 0x336 JUMPI RETURNDATASIZE PUSH1 0x0 DUP1 RETURNDATACOPY RETURNDATASIZE PUSH1 0x0 REVERT JUMPDEST POP PUSH1 0x0 SLOAD PUSH1 0x40 MLOAD DUP3 DUP2 MSTORE PUSH1 0x1 PUSH1 0x1 PUSH1 0xA0 SHL SUB SWAP1 SWAP2 AND SWAP1 PUSH32 0xD7DEE2702D63AD89917B6A4DA9981C90C4D24F8C2BDFD64C604ECAE57D8D0651 SWAP1 PUSH1 0x20 ADD JUMPDEST PUSH1 0x40 MLOAD DUP1 SWAP2 SUB SWAP1 LOG2 POP JUMP JUMPDEST PUSH1 0x2 SLOAD PUSH1 0x1 PUSH1 0x1 PUSH1 0xA0 SHL SUB AND CALLER EQ PUSH2 0x3C6 JUMPI PUSH1 0x40 MLOAD PUSH3 0x461BCD PUSH1 0xE5 SHL DUP2 MSTORE PUSH1 0x20 PUSH1 0x4 DUP3 ADD MSTORE PUSH1 0xC PUSH1 0x24 DUP3 ADD MSTORE PUSH12 0x37B7363C9030B93134BA32B9 PUSH1 0xA1 SHL PUSH1 0x44 DUP3 ADD MSTORE PUSH1 0x64 ADD PUSH2 0x2AC JUMP JUMPDEST PUSH1 0x5 SLOAD PUSH1 0xFF AND ISZERO DUP1 ISZERO PUSH2 0x3E1 JUMPI POP PUSH1 0x5 SLOAD PUSH2 0x100 SWAP1 DIV PUSH1 0xFF AND ISZERO JUMPDEST PUSH2 0x3FD JUMPI PUSH1 0x40 MLOAD PUSH3 0x461BCD PUSH1 0xE5 SHL DUP2 MSTORE PUSH1 0x4 ADD PUSH2 0x2AC SWAP1 PUSH2 0x7E7 JUMP JUMPDEST PUSH1 0x5 DUP1 SLOAD PUSH1 0xFF NOT AND PUSH1 0x1 SWAP1 DUP2 OR SWAP1 SWAP2 SSTORE SLOAD PUSH1 0x40 MLOAD SELFBALANCE SWAP2 PUSH1 0x1 PUSH1 0x1 PUSH1 0xA0 SHL SUB AND SWAP1 DUP3 ISZERO PUSH2 0x8FC MUL SWAP1 DUP4 SWAP1 PUSH1 0x0 DUP2 DUP2 DUP2 DUP6 DUP9 DUP9 CALL SWAP4 POP POP POP POP ISZERO DUP1 ISZERO PUSH2 0x445 JUMPI RETURNDATASIZE PUSH1 0x0 DUP1 RETURNDATACOPY RETURNDATASIZE PUSH1 0x0 REVERT JUMPDEST POP PUSH1 0x40 MLOAD CALLER SWAP1 PUSH32 0x5D91BD0CECC45FEF102AF61DE92C5462FADC884A5CE9D21C15E8A85198F2349E SWAP1 PUSH1 0x0 SWAP1 LOG2 PUSH1 0x1 SLOAD PUSH1 0x40 MLOAD DUP3 DUP2 MSTORE PUSH1 0x1 PUSH1 0x1 PUSH1 0xA0 SHL SUB SWAP1 SWAP2 AND SWAP1 PUSH32 0xB21FB52D5749B80F3182F8C6992236B5E5576681880914484D7F4C9B062E619E SWAP1 PUSH1 0x20 ADD PUSH2 0x372 JUMP JUMPDEST PUSH1 0x0 SLOAD PUSH1 0x1 PUSH1 0x1 PUSH1 0xA0 SHL SUB AND CALLER EQ PUSH2 0x4F7 JUMPI PUSH1 0x40 MLOAD PUSH3 0x461BCD PUSH1 0xE5 SHL DUP2 MSTORE PUSH1 0x20 PUSH1 0x4 DUP3 ADD MSTORE PUSH1 0xA PUSH1 0x24 DUP3 ADD MSTORE PUSH10 0x37B7363C903830BCB2B9 PUSH1 0xB1 SHL PUSH1 0x44 DUP3 ADD MSTORE PUSH1 0x64 ADD PUSH2 0x2AC JUMP JUMPDEST PUSH1 0x0 PUSH1 0x4 SLOAD GT PUSH2 0x536 JUMPI PUSH1 0x40 MLOAD PUSH3 0x461BCD PUSH1 0xE5 SHL DUP2 MSTORE PUSH1 0x20 PUSH1 0x4 DUP3 ADD MSTORE PUSH1 0xA PUSH1 0x24 DUP3 ADD MSTORE PUSH10 0x1B9BDD08199D5B991959 PUSH1 0xB2 SHL PUSH1 0x44 DUP3 ADD MSTORE PUSH1 0x64 ADD PUSH2 0x2AC JUMP JUMPDEST DUP1 PUSH1 0x4 SLOAD PUSH2 0x544 SWAP2 SWAP1 PUSH2 0x812 JUMP JUMPDEST TIMESTAMP LT ISZERO PUSH2 0x57F JUMPI PUSH1 0x40 MLOAD PUSH3 0x461BCD PUSH1 0xE5 SHL DUP2 MSTORE PUSH1 0x20 PUSH1 0x4 DUP3 ADD MSTORE PUSH1 0x9 PUSH1 0x24 DUP3 ADD MSTORE PUSH9 0x746F6F206561726C79 PUSH1 0xB8 SHL PUSH1 0x44 DUP3 ADD MSTORE PUSH1 0x64 ADD PUSH2 0x2AC JUMP JUMPDEST PUSH1 0x5 SLOAD PUSH1 0xFF AND ISZERO DUP1 ISZERO PUSH2 0x59A JUMPI POP PUSH1 0x5 SLOAD PUSH2 0x100 SWAP1 DIV PUSH1 0xFF AND ISZERO JUMPDEST PUSH2 0x5B6 JUMPI PUSH1 0x40 MLOAD PUSH3 0x461BCD PUSH1 0xE5 SHL DUP2 MSTORE PUSH1 0x4 ADD PUSH2 0x2AC SWAP1 PUSH2 0x7E7 JUMP JUMPDEST PUSH1 0x5 DUP1 SLOAD PUSH2 0xFF00 NOT AND PUSH2 0x100 OR SWAP1 SSTORE PUSH1 0x0 DUP1 SLOAD PUSH1 0x40 MLOAD SELFBALANCE SWAP3 PUSH1 0x1 PUSH1 0x1 PUSH1 0xA0 SHL SUB SWAP1 SWAP3 AND SWAP2 DUP4 ISZERO PUSH2 0x8FC MUL SWAP2 DUP5 SWAP2 DUP2 DUP2 DUP2 DUP6 DUP9 DUP9 CALL SWAP4 POP POP POP POP ISZERO DUP1 ISZERO PUSH2 0x600 JUMPI RETURNDATASIZE PUSH1 0x0 DUP1 RETURNDATACOPY RETURNDATASIZE PUSH1 0x0 REVERT JUMPDEST POP PUSH1 0x40 MLOAD CALLER SWAP1 PUSH32 0xD4D064040EAEF5E282052F5161177E0FFA030862264B44C8C32DEE95CCE33A7D SWAP1 PUSH1 0x0 SWAP1 LOG2 PUSH1 0x0 SLOAD PUSH1 0x40 MLOAD DUP3 DUP2 MSTORE PUSH1 0x1 PUSH1 0x1 PUSH1 0xA0 SHL SUB SWAP1 SWAP2 AND SWAP1 PUSH32 0xD7DEE2702D63AD89917B6A4DA9981C90C4D24F8C2BDFD64C604ECAE57D8D0651 SWAP1 PUSH1 0x20 ADD PUSH2 0x25B JUMP JUMPDEST PUSH1 0x0 SLOAD PUSH1 0x1 PUSH1 0x1 PUSH1 0xA0 SHL SUB AND CALLER EQ PUSH2 0x6B2 JUMPI PUSH1 0x40 MLOAD PUSH3 0x461BCD PUSH1 0xE5 SHL DUP2 MSTORE PUSH1 0x20 PUSH1 0x4 DUP3 ADD MSTORE PUSH1 0xA PUSH1 0x24 DUP3 ADD MSTORE PUSH10 0x37B7363C903830BCB2B9 PUSH1 0xB1 SHL PUSH1 0x44 DUP3 ADD MSTORE PUSH1 0x64 ADD PUSH2 0x2AC JUMP JUMPDEST PUSH1 0x3 SLOAD CALLVALUE EQ PUSH2 0x6F2 JUMPI PUSH1 0x40 MLOAD PUSH3 0x461BCD PUSH1 0xE5 SHL DUP2 MSTORE PUSH1 0x20 PUSH1 0x4 DUP3 ADD MSTORE PUSH1 0xC PUSH1 0x24 DUP3 ADD MSTORE PUSH12 0x1DDC9BDB99C8185B5BDD5B9D PUSH1 0xA2 SHL PUSH1 0x44 DUP3 ADD MSTORE PUSH1 0x64 ADD PUSH2 0x2AC JUMP JUMPDEST TIMESTAMP PUSH1 0x4 SSTORE PUSH1 0x40 MLOAD CALLVALUE DUP2 MSTORE CALLER SWAP1 PUSH32 0x5AF8184BEF8E4B45EB9F6ED7734D04DA38CED226495548F46E0C8FF8D7D9A524 SWAP1 PUSH1 0x20 ADD PUSH1 0x40 MLOAD DUP1 SWAP2 SUB SWAP1 LOG2 JUMP JUMPDEST PUSH1 0x0 DUP1 PUSH1 0x20 DUP4 DUP6 SUB SLT ISZERO PUSH2 0x740 JUMPI PUSH1 0x0 DUP1 REVERT JUMPDEST DUP3 CALLDATALOAD PUSH8 0xFFFFFFFFFFFFFFFF DUP1 DUP3 GT ISZERO PUSH2 0x758 JUMPI PUSH1 0x0 DUP1 REVERT JUMPDEST DUP2 DUP6 ADD SWAP2 POP DUP6 PUSH1 0x1F DUP4 ADD SLT PUSH2 0x76C JUMPI PUSH1 0x0 DUP1 REVERT JUMPDEST DUP2 CALLDATALOAD DUP2 DUP2 GT ISZERO PUSH2 0x77B JUMPI PUSH1 0x0 DUP1 REVERT JUMPDEST DUP7 PUSH1 0x20 DUP3 DUP6 ADD ADD GT ISZERO PUSH2 0x78D JUMPI PUSH1 0x0 DUP1 REVERT JUMPDEST PUSH1 0x20 SWAP3 SWAP1 SWAP3 ADD SWAP7 SWAP2 SWAP6 POP SWAP1 SWAP4 POP POP POP POP JUMP JUMPDEST PUSH1 0x0 PUSH1 0x20 DUP3 DUP5 SUB SLT ISZERO PUSH2 0x7B1 JUMPI PUSH1 0x0 DUP1 REVERT JUMPDEST POP CALLDATALOAD SWAP2 SWAP1 POP JUMP JUMPDEST PUSH1 0x20 DUP2 MSTORE DUP2 PUSH1 0x20 DUP3 ADD MSTORE DUP2 DUP4 PUSH1 0x40 DUP4 ADD CALLDATACOPY PUSH1 0x0 DUP2 DUP4 ADD PUSH1 0x40 SWAP1 DUP2 ADD SWAP2 SWAP1 SWAP2 MSTORE PUSH1 0x1F SWAP1 SWAP3 ADD PUSH1 0x1F NOT AND ADD ADD SWAP2 SWAP1 POP JUMP JUMPDEST PUSH1 0x20 DUP1 DUP3 MSTORE PUSH1 0x11 SWAP1 DUP3 ADD MSTORE PUSH17 0x185B1C9958591E48199A5B985B1A5E9959 PUSH1 0x7A SHL PUSH1 0x40 DUP3 ADD MSTORE PUSH1 0x60 ADD SWAP1 JUMP JUMPDEST DUP1 DUP3 ADD DUP1 DUP3 GT ISZERO PUSH2 0x833 JUMPI PUSH4 0x4E487B71 PUSH1 0xE0 SHL PUSH1 0x0 MSTORE PUSH1 0x11 PUSH1 0x4 MSTORE PUSH1 0x24 PUSH1 0x0 REVERT JUMPDEST SWAP3 SWAP2 POP POP JUMP INVALID LOG2 PUSH5 0x6970667358 0x22 SLT KECCAK256 0xDC SIGNEXTEND 0x49 SWAP4 0x27 CALLDATASIZE 0xC7 PUSH4 0x2F0F6FDD 0xE9 0x4F XOR 0xEE 0xB2 0xE2 0xDD 0xCA 0xD5 PUSH22 0x17AF70DB8E831C1A4CA64736F6C6343000812003300 "},"methodIdentifiers":{"amount()":"aa8c217c","approveAndRelease()":"70dfcbc2","arbiter()":"fe25e00a","claimTimeout(uint256)":"86e773f1","fund()":"b60d4288","fundedAt()":"a9a748ff","payee()":"ae90b213","payer()":"123119cd","refund()":"590e1ae3","refunded()":"12f53950","released()":"96132521","submitProof(string)":"2c2e8faf"}}}}}