{
  "_format": "hh-sol-artifact-1",
  "contractName": "EscrowERC20Factory",
  "sourceName": "contracts/EscrowERC20Factory.sol",
  "abi": [
    {
      "anonymous": false,
      "inputs": [
        {
          "indexed": true,
          "internalType": "address",
          "name": "escrowAddress",
          "type": "address"
        },
        {
          "indexed": true,
          "internalType": "address",
          "name": "payer",
          "type": "address"
        },
        {
          "indexed": true,
          "internalType": "address",
          "name": "payee",
          "type": "address"
        },
        {
          "indexed": false,
          "internalType": "address",
          "name": "arbiter",
          "type": "address"
        },
        {
          "indexed": false,
          "internalType": "address",
          "name": "token",
          "type": "address"
        },
        {
          "indexed": false,
          "internalType": "uint256",
          "name": "amount",
          "type": "uint256"
        }
      ],
      "name": "EscrowCreated",
      "type": "event"
    },
    {
      "inputs": [],
      "name": "allEscrows",
      "outputs": [
        {
          "internalType": "address[]",
          "name": "",
          "type": "address[]"
        }
      ],
      "stateMutability": "view",
      "type": "function"
    },
    {
      "inputs": [
        {
          "internalType": "address",
          "name": "payer",
          "type": "address"
        },
        {
          "internalType": "address",
          "name": "payee",
          "type": "address"
        },
        {
          "internalType": "address",
          "name": "arbiter",
          "type": "address"
        },
        {
          "internalType": "address",
          "name": "token",
          "type": "address"
        },
        {
          "internalType": "uint256",
          "name": "amount",
          "type": "uint256"
        }
      ],
      "name": "createEscrowERC20",
      "outputs": [
        {
          "internalType": "address",
          "name": "",
          "type": "address"
        }
      ],
      "stateMutability": "nonpayable",
      "type": "function"
    },
    {
      "inputs": [
        {
          "internalType": "uint256",
          "name": "",
          "type": "uint256"
        }
      ],
      "name": "escrows",
      "outputs": [
        {
          "internalType": "address",
          "name": "",
          "type": "address"
        }
      ],
      "stateMutability": "view",
      "type": "function"
    }
  ],
  "bytecode": "0x608060405234801561001057600080fd5b50610f30806100206000396000f3fe608060405234801561001057600080fd5b50600436106100415760003560e01c8063012f52ee14610046578063785cdc3614610076578063df28c40814610089575b600080fd5b61005961005436600461023d565b61009e565b6040516001600160a01b0390911681526020015b60405180910390f35b610059610084366004610272565b6100c8565b6100916101ce565b60405161006d91906102ce565b600081815481106100ae57600080fd5b6000918252602090912001546001600160a01b0316905081565b60008086868686866040516100dc90610230565b6001600160a01b039586168152938516602085015291841660408401529092166060820152608081019190915260a001604051809103906000f080158015610128573d6000803e3d6000fd5b50600080546001810182559080527f290decd9548b62a8d60345a988386fc84ba6bc95484008f6362f93160ef3e5630180546001600160a01b0319166001600160a01b03838116918217909255604080518984168152888416602082015290810187905292935088821692918a16917fae5622945a7d8967e676d08786ed01239e57a0f397e4c17e711d51d106a591509060600160405180910390a49695505050505050565b6060600080548060200260200160405190810160405280929190818152602001828054801561022657602002820191906000526020600020905b81546001600160a01b03168152600190910190602001808311610208575b5050505050905090565b610bdf8061031c83390190565b60006020828403121561024f57600080fd5b5035919050565b80356001600160a01b038116811461026d57600080fd5b919050565b600080600080600060a0868803121561028a57600080fd5b61029386610256565b94506102a160208701610256565b93506102af60408701610256565b92506102bd60608701610256565b949793965091946080013592915050565b6020808252825182820181905260009190848201906040850190845b8181101561030f5783516001600160a01b0316835292840192918401916001016102ea565b5090969550505050505056fe608060405234801561001057600080fd5b50604051610bdf380380610bdf83398101604081905261002f916100a1565b600080546001600160a01b03199081166001600160a01b039788161790915560018054821695871695909517909455600280548516938616939093179092556003805490931693169290921790556004556100ff565b80516001600160a01b038116811461009c57600080fd5b919050565b600080600080600060a086880312156100b957600080fd5b6100c286610085565b94506100d060208701610085565b93506100de60408701610085565b92506100ec60608701610085565b9150608086015190509295509295909350565b610ad18061010e6000396000f3fe608060405234801561001057600080fd5b50600436106100ea5760003560e01c8063961325211161008c578063ae90b21311610066578063ae90b213146101bb578063b60d4288146101ce578063fc0c546a146101d6578063fe25e00a146101e957600080fd5b8063961325211461018e578063a9a748ff1461019b578063aa8c217c146101b257600080fd5b80632c2e8faf116100c85780632c2e8faf1461014b578063590e1ae31461015e57806359d6b35b14610166578063708ddf7b1461017b57600080fd5b8063123119cd146100ef57806312424e3f1461011f57806312f5395014610129575b600080fd5b600054610102906001600160a01b031681565b6040516001600160a01b0390911681526020015b60405180910390f35b6101276101fc565b005b60065461013b90610100900460ff1681565b6040519015158152602001610116565b6101276101593660046107fa565b6103c7565b610127610474565b61016e610610565b604051610116919061086c565b60065461013b9062010000900460ff1681565b60065461013b9060ff1681565b6101a460055481565b604051908152602001610116565b6101a460045481565b600154610102906001600160a01b031681565b61012761069e565b600354610102906001600160a01b031681565b600254610102906001600160a01b031681565b6000546001600160a01b031633148061021f57506002546001600160a01b031633145b6102685760405162461bcd60e51b815260206004820152601560248201527437b7363c903830bcb2b91037b91030b93134ba32b960591b60448201526064015b60405180910390fd5b60065460ff16156102ae5760405162461bcd60e51b815260206004820152601060248201526f185b1c9958591e481c995b19585cd95960821b604482015260640161025f565b6006805460ff1916600117905560405133907f5d91bd0cecc45fef102af61de92c5462fadc884a5ce9d21c15e8a85198f2349e90600090a26003546001546004805460405163a9059cbb60e01b81526001600160a01b0393841692810192909252602482015291169063a9059cbb906044016020604051808303816000875af115801561033f573d6000803e3d6000fd5b505050506040513d601f19601f8201168201806040525081019061036391906108ba565b61037f5760405162461bcd60e51b815260040161025f906108e3565b6001546004546040519081526001600160a01b03909116907fb21fb52d5749b80f3182f8c6992236b5e5576681880914484d7f4c9b062e619e906020015b60405180910390a2565b6001546001600160a01b0316331461040e5760405162461bcd60e51b815260206004820152600a6024820152696f6e6c7920706179656560b01b604482015260640161025f565b6006805462ff0000191662010000179055600761042c8284836109ab565b50336001600160a01b03167f227d17811e582357665ee6ee281ef8528946951eab558c87afaf102464d6cc568383604051610468929190610a6c565b60405180910390a25050565b6000546001600160a01b031633148061049757506002546001600160a01b031633145b6104db5760405162461bcd60e51b815260206004820152601560248201527437b7363c903830bcb2b91037b91030b93134ba32b960591b604482015260640161025f565b600654610100900460ff16156105265760405162461bcd60e51b815260206004820152601060248201526f185b1c9958591e481c99599d5b99195960821b604482015260640161025f565b6006805461ff0019166101001790556003546000546004805460405163a9059cbb60e01b81526001600160a01b0393841692810192909252602482015291169063a9059cbb906044016020604051808303816000875af115801561058e573d6000803e3d6000fd5b505050506040513d601f19601f820116820180604052508101906105b291906108ba565b6105ce5760405162461bcd60e51b815260040161025f906108e3565b6000546004546040519081526001600160a01b03909116907fd7dee2702d63ad89917b6a4da9981c90c4d24f8c2bdfd64c604ecae57d8d0651906020016103bd565b6007805461061d90610922565b80601f016020809104026020016040519081016040528092919081815260200182805461064990610922565b80156106965780601f1061066b57610100808354040283529160200191610696565b820191906000526020600020905b81548152906001019060200180831161067957829003601f168201915b505050505081565b6000546001600160a01b031633146106e55760405162461bcd60e51b815260206004820152600a60248201526937b7363c903830bcb2b960b11b604482015260640161025f565b600554156107265760405162461bcd60e51b815260206004820152600e60248201526d185b1c9958591e48199d5b99195960921b604482015260640161025f565b600354600480546040516323b872dd60e01b8152339281019290925230602483015260448201526001600160a01b03909116906323b872dd906064016020604051808303816000875af1158015610781573d6000803e3d6000fd5b505050506040513d601f19601f820116820180604052508101906107a591906108ba565b6107c15760405162461bcd60e51b815260040161025f906108e3565b4260055560045460405190815233907f5af8184bef8e4b45eb9f6ed7734d04da38ced226495548f46e0c8ff8d7d9a524906020016103bd565b6000806020838503121561080d57600080fd5b823567ffffffffffffffff8082111561082557600080fd5b818501915085601f83011261083957600080fd5b81358181111561084857600080fd5b86602082850101111561085a57600080fd5b60209290920196919550909350505050565b600060208083528351808285015260005b818110156108995785810183015185820160400152820161087d565b506000604082860101526040601f19601f8301168501019250505092915050565b6000602082840312156108cc57600080fd5b815180151581146108dc57600080fd5b9392505050565b6020808252600f908201526e1d1c985b9cd9995c8819985a5b1959608a1b604082015260600190565b634e487b7160e01b600052604160045260246000fd5b600181811c9082168061093657607f821691505b60208210810361095657634e487b7160e01b600052602260045260246000fd5b50919050565b601f8211156109a657600081815260208120601f850160051c810160208610156109835750805b601f850160051c820191505b818110156109a25782815560010161098f565b5050505b505050565b67ffffffffffffffff8311156109c3576109c361090c565b6109d7836109d18354610922565b8361095c565b6000601f841160018114610a0b57600085156109f35750838201355b600019600387901b1c1916600186901b178355610a65565b600083815260209020601f19861690835b82811015610a3c5786850135825560209485019460019092019101610a1c565b5086821015610a595760001960f88860031b161c19848701351681555b505060018560011b0183555b5050505050565b60208152816020820152818360408301376000818301604090810191909152601f909201601f1916010191905056fea2646970667358221220797f82910fca776d01f518929eb0772b78d5dfdace176d212e8e63cd13f7748264736f6c63430008120033a2646970667358221220a9abd1a5de28c51e50e473d3ce499067fb548b0b22cdc6398d5b23cd4ba3313164736f6c63430008120033",
  "linkReferences": {},
  "deployedLinkReferences": {}
}