{
  "_format": "hh-sol-artifact-1",
  "contractName": "EscrowMilestoneFactory",
  "sourceName": "contracts/EscrowMilestoneFactory.sol",
  "abi": [
    {
      "anonymous": false,
      "inputs": [
        {
          "indexed": true,
          "internalType": "address",
          "name": "escrow",
          "type": "address"
        },
        {
          "indexed": true,
          "internalType": "address",
          "name": "payer",
          "type": "address"
        },
        {
          "indexed": true,
          "internalType": "address",
          "name": "payee",
          "type": "address"
        }
      ],
      "name": "EscrowMilestoneCreated",
      "type": "event"
    },
    {
      "inputs": [
        {
          "internalType": "uint256",
          "name": "",
          "type": "uint256"
        }
      ],
      "name": "allEscrows",
      "outputs": [
        {
          "internalType": "address",
          "name": "",
          "type": "address"
        }
      ],
      "stateMutability": "view",
      "type": "function"
    },
    {
      "inputs": [],
      "name": "allEscrowsLength",
      "outputs": [
        {
          "internalType": "uint256",
          "name": "",
          "type": "uint256"
        }
      ],
      "stateMutability": "view",
      "type": "function"
    },
    {
      "inputs": [
        {
          "internalType": "address",
          "name": "payer",
          "type": "address"
        },
        {
          "internalType": "address",
          "name": "payee",
          "type": "address"
        },
        {
          "internalType": "address",
          "name": "arbiter",
          "type": "address"
        },
        {
          "internalType": "address",
          "name": "token",
          "type": "address"
        },
        {
          "internalType": "uint256",
          "name": "totalAmount",
          "type": "uint256"
        },
        {
          "internalType": "uint256",
          "name": "m1Amount",
          "type": "uint256"
        },
        {
          "internalType": "uint256",
          "name": "m2Amount",
          "type": "uint256"
        }
      ],
      "name": "createEscrowMilestone",
      "outputs": [
        {
          "internalType": "address",
          "name": "",
          "type": "address"
        }
      ],
      "stateMutability": "nonpayable",
      "type": "function"
    }
  ],
  "bytecode": "0x608060405234801561001057600080fd5b506110f3806100206000396000f3fe608060405234801561001057600080fd5b50600436106100415760003560e01c80631d3afee61461004657806350b0d62b14610076578063e1834ef814610089575b600080fd5b6100596100543660046101ce565b61009a565b6040516001600160a01b0390911681526020015b60405180910390f35b610059610084366004610203565b6100c4565b60005460405190815260200161006d565b600081815481106100aa57600080fd5b6000918252602090912001546001600160a01b0316905081565b600080888888888888886040516100da906101c1565b6001600160a01b03978816815295871660208701529386166040860152949091166060840152608083015260a082019290925260c081019190915260e001604051809103906000f080158015610134573d6000803e3d6000fd5b50600080546001810182558180527f290decd9548b62a8d60345a988386fc84ba6bc95484008f6362f93160ef3e5630180546001600160a01b0319166001600160a01b038481169182179092556040519394508b821693918d169290917faa0d329a6bde7d2f563b31d794ec6e9970b95677c1f2874d7f5e68045be578c49190a498975050505050505050565b610e4b8061027383390190565b6000602082840312156101e057600080fd5b5035919050565b80356001600160a01b03811681146101fe57600080fd5b919050565b600080600080600080600060e0888a03121561021e57600080fd5b610227886101e7565b9650610235602089016101e7565b9550610243604089016101e7565b9450610251606089016101e7565b9699959850939660808101359560a0820135955060c090910135935091505056fe608060405234801561001057600080fd5b50604051610e4b380380610e4b83398101604081905261002f916100f2565b600080546001600160a01b03199081166001600160a01b038a81169182179093556001805483168a85169081179091556002805484168a8616908117909155600380549094169489169485179093556004879055600586905560098590556040805194855260208501889052929390927f5110acfd33aad02838430d854a830e50cb07377fab40a6e84daeedb1b1513600910160405180910390a450505050505050610163565b80516001600160a01b03811681146100ed57600080fd5b919050565b600080600080600080600060e0888a03121561010d57600080fd5b610116886100d6565b9650610124602089016100d6565b9550610132604089016100d6565b9450610140606089016100d6565b93506080880151925060a0880151915060c0880151905092959891949750929550565b610cd9806101726000396000f3fe608060405234801561001057600080fd5b506004361061009e5760003560e01c8063b90314ed11610066578063b90314ed14610125578063c438b40f14610138578063e89e4ed61461014b578063fc0c546a1461016f578063fe25e00a1461018257600080fd5b8063123119cd146100a35780631a39d8ef146100d35780634d14d406146100ea57806373a482e9146100ff578063ae90b21314610112575b600080fd5b6000546100b6906001600160a01b031681565b6040516001600160a01b0390911681526020015b60405180910390f35b6100dc60045481565b6040519081526020016100ca565b6100fd6100f8366004610979565b610195565b005b6100fd61010d3660046109f5565b610289565b6001546100b6906001600160a01b031681565b6100fd6101333660046109f5565b610443565b6100fd6101463660046109f5565b610666565b61015e6101593660046109f5565b6108b2565b6040516100ca959493929190610a0e565b6003546100b6906001600160a01b031681565b6002546100b6906001600160a01b031681565b6001546001600160a01b031633146101e15760405162461bcd60e51b815260206004820152600a6024820152696f6e6c7920706179656560b01b60448201526064015b60405180910390fd5b600283106102015760405162461bcd60e51b81526004016101d890610a85565b60006005846002811061021657610216610aac565b6004020160018101805461010061ff001990911617905590506002810161023e838583610b61565b50336001600160a01b0316847fb2217a1ebc8d6435d328a4607aa9709269fe4cb393535a1675721d8431a54018858560405161027b929190610c22565b60405180910390a350505050565b6000546001600160a01b031633146102d05760405162461bcd60e51b815260206004820152600a60248201526937b7363c903830bcb2b960b11b60448201526064016101d8565b600281106102f05760405162461bcd60e51b81526004016101d890610a85565b60006005826002811061030557610305610aac565b6004020190508060010160009054906101000a900460ff161561035b5760405162461bcd60e51b815260206004820152600e60248201526d185b1c9958591e48199d5b99195960921b60448201526064016101d8565b60035481546040516323b872dd60e01b815233600482015230602482015260448101919091526001600160a01b03909116906323b872dd906064016020604051808303816000875af11580156103b5573d6000803e3d6000fd5b505050506040513d601f19601f820116820180604052508101906103d99190610c51565b6103f55760405162461bcd60e51b81526004016101d890610c7a565b6001818101805460ff191690911790558054604051908152339083907f38c48552690c96ec2872092ac1db6c19fb59f5a8c5b49bbf41ed4886d0ca6926906020015b60405180910390a35050565b6000546001600160a01b031633148061046657506002546001600160a01b031633145b6104aa5760405162461bcd60e51b815260206004820152601560248201527437b7363c903830bcb2b91037b91030b93134ba32b960591b60448201526064016101d8565b600281106104ca5760405162461bcd60e51b81526004016101d890610a85565b6000600582600281106104df576104df610aac565b6004020190508060010160009054906101000a900460ff166105305760405162461bcd60e51b815260206004820152600a6024820152691b9bdd08199d5b99195960b21b60448201526064016101d8565b600381015460ff16156105785760405162461bcd60e51b815260206004820152601060248201526f185b1c9958591e481c995b19585cd95960821b60448201526064016101d8565b60018101805460ff1916905560005481546040519081526001600160a01b039091169083907f7ca5472b7ea78c2c0141c5a12ee6d170cf4ce8ed06be3d22c8252ddfc7a6a2c49060200160405180910390a3600354600054825460405163a9059cbb60e01b81526001600160a01b039283166004820152602481019190915291169063a9059cbb906044016020604051808303816000875af1158015610622573d6000803e3d6000fd5b505050506040513d601f19601f820116820180604052508101906106469190610c51565b6106625760405162461bcd60e51b81526004016101d890610c7a565b5050565b6000546001600160a01b031633148061068957506002546001600160a01b031633145b6106cd5760405162461bcd60e51b815260206004820152601560248201527437b7363c903830bcb2b91037b91030b93134ba32b960591b60448201526064016101d8565b600281106106ed5760405162461bcd60e51b81526004016101d890610a85565b60006005826002811061070257610702610aac565b6004020190508060010160009054906101000a900460ff166107535760405162461bcd60e51b815260206004820152600a6024820152691b9bdd08199d5b99195960b21b60448201526064016101d8565b600381015460ff161561079b5760405162461bcd60e51b815260206004820152601060248201526f185b1c9958591e481c995b19585cd95960821b60448201526064016101d8565b60038101805460ff19166001179055604051339083907f7b39c92a7e1a86e846edaeff6eba715a046352c596794c2a374269c126a9976890600090a3600354600154825460405163a9059cbb60e01b81526001600160a01b039283166004820152602481019190915291169063a9059cbb906044016020604051808303816000875af115801561082f573d6000803e3d6000fd5b505050506040513d601f19601f820116820180604052508101906108539190610c51565b61086f5760405162461bcd60e51b81526004016101d890610c7a565b60015481546040519081526001600160a01b039091169083907f3bfce8de0db7450cc169b94323c210e69a36c6a4a58c9f5d96bec4973adce39290602001610437565b600581600281106108c257600080fd5b600402018054600182015460028301805492945060ff8083169461010090930416926108ed90610ad8565b80601f016020809104026020016040519081016040528092919081815260200182805461091990610ad8565b80156109665780601f1061093b57610100808354040283529160200191610966565b820191906000526020600020905b81548152906001019060200180831161094957829003601f168201915b5050506003909301549192505060ff1685565b60008060006040848603121561098e57600080fd5b83359250602084013567ffffffffffffffff808211156109ad57600080fd5b818601915086601f8301126109c157600080fd5b8135818111156109d057600080fd5b8760208285010111156109e257600080fd5b6020830194508093505050509250925092565b600060208284031215610a0757600080fd5b5035919050565b8581526000602086151581840152851515604084015260a0606084015284518060a085015260005b81811015610a525786810183015185820160c001528201610a36565b50600060c0828601015260c0601f19601f83011685010192505050610a7b608083018415159052565b9695505050505050565b6020808252600d908201526c0d2dcecc2d8d2c840d2dcc8caf609b1b604082015260600190565b634e487b7160e01b600052603260045260246000fd5b634e487b7160e01b600052604160045260246000fd5b600181811c90821680610aec57607f821691505b602082108103610b0c57634e487b7160e01b600052602260045260246000fd5b50919050565b601f821115610b5c57600081815260208120601f850160051c81016020861015610b395750805b601f850160051c820191505b81811015610b5857828155600101610b45565b5050505b505050565b67ffffffffffffffff831115610b7957610b79610ac2565b610b8d83610b878354610ad8565b83610b12565b6000601f841160018114610bc15760008515610ba95750838201355b600019600387901b1c1916600186901b178355610c1b565b600083815260209020601f19861690835b82811015610bf25786850135825560209485019460019092019101610bd2565b5086821015610c0f5760001960f88860031b161c19848701351681555b505060018560011b0183555b5050505050565b60208152816020820152818360408301376000818301604090810191909152601f909201601f19160101919050565b600060208284031215610c6357600080fd5b81518015158114610c7357600080fd5b9392505050565b6020808252600f908201526e1d1c985b9cd9995c8819985a5b1959608a1b60408201526060019056fea2646970667358221220cc8c3de2ce2fbcd6c7c757c9df91978191eff096258ebec73a5d9d908968e82764736f6c63430008120033a2646970667358221220f5879f7ae5821e315a36452ca43a42978042b6d072e2e496f402bfbcb943dbcc64736f6c63430008120033",
  "linkReferences": {},
  "deployedLinkReferences": {}
}